:020000040000FA
:1000000085018601870188018901A001A101A20162
:100010008316031785018801890103130F308600B9
:100020008701FF3088008312152006181E288618C5
:100030002D2806194F288619722815280808A000AF
:100040008700061C2128061823280808A10087001D
:10005000061C282806182A2893280330E4002F308D
:10006000E5001930E60045210800861835280330E0
:10007000E4002F30E5001930E6004521080006169F
:100080000130E1007130E200392106120A30E4004B
:100090001130E5000F30E600452100003F28033015
:1000A000E4002F30E5001930E600452108008618ED
:1000B00057280330E4002F30E5001930E6004521D1
:1000C000080006161530E4000930E5000130E600AE
:1000D000452106120B30E4000530E5002B30E60028
:1000E000452161280330E4002F30E5001930E60097
:1000F0004521080086187A280330E4002F30E500F7
:100100001930E6004521080006162330E1000730CB
:10011000E200392106121D30E4000330E5001930F9
:10012000E600452184280808A10020082107A20034
:100130000318E320220887009D28061C9D28061826
:100140009F28861321082002A200031C003CA20065
:10015000031CE32022088700AD280808A10021081D
:1001600020040319B8282008A207A10BB3282208ED
:1001700087000318BC28C028E32000308700C0286F
:10018000061CC0280618C228A20186130808A10070
:10019000FF3021050319DD282108A0020319D42806
:1001A000031CD828A20ACC28A20A22088700D72834
:1001B0008617E32022088700DC280319FF30870018
:1001C00003198617E22886170530A300FF30870041
:1001D000ED208709A30BE82808004F30E400033026
:1001E000E500FD30E60045210800870114210310D9
:1001F0001421870A1421870D871FFA281421870CE0
:10020000031CFE281421870D14210230A4000030A5
:100210001D2124081D21871F09292408A500870204
:100220001421232107181129E530E400BA30E50034
:100230000130E600452100000800A4070708240754
:100240008700142108002508A400A5010230A4029B
:1002500003192C29A50A2729A50A25088702142194
:10026000080000000000000000000000E00B312941
:1002700008006208E3000000000000000000000029
:10028000E30B3B29E10B392908006608E700650804
:10029000E80000000000000000000000E80B492911
:0A02A000E70B4729E40B452908008D
:0402AA0000340034E8
:02400E00E423A9
:02401000FF3F70
:00000001FF
