:020000040000FA
:1000000085018601870188018901A001A101A20162
:100010008316031785018801890103130F308600B9
:100020008701FF308800831231200808A000870074
:1000300031200808A100870031200808A2008700AD
:100040003120FF3087008617292087098613292051
:1000500021282030E4002130E5002230E6009820FD
:100060000800061C31280618332808000330E40075
:100070002F30E5001930E600982008000330E40036
:100080002F30E5001930E60098200800870166202F
:1000900003106620870A6620870D871F4B2866207D
:1000A000870C031C4F286620870D66200230A400B1
:1000B00000306F2024086F20871F5A282408A500CD
:1000C000870266207520071862284628E530E4007C
:1000D000BA30E5000130E600982000000800A407CF
:1000E000070824078700662008002508A400A5014A
:1000F0000230A40203197E28A50A7928A50A25083A
:1001000087026620080008000000000000000000D0
:100110000000E00B842808006208E30000000000F3
:10012000000000000000E30B8E28E10B8C28080083
:100130006608E7006508E800000000000000000015
:100140000000E80B9C28E70B9A28E40B982808008D
:040150000034003443
:02400E00E423A9
:02401000FF3F70
:00000001FF
